{
  "contractName": "Token",
  "abi": [
    {
      "inputs": [
        {
          "internalType": "address",
          "name": "initialOwner",
          "type": "address"
        }
      ],
      "stateMutability": "nonpayable",
      "type": "constructor"
    },
    {
      "inputs": [
        {
          "internalType": "address",
          "name": "spender",
          "type": "address"
        },
        {
          "internalType": "uint256",
          "name": "allowance",
          "type": "uint256"
        },
        {
          "internalType": "uint256",
          "name": "needed",
          "type": "uint256"
        }
      ],
      "name": "ERC20InsufficientAllowance",
      "type": "error"
    },
    {
      "inputs": [
        {
          "internalType": "address",
          "name": "sender",
          "type": "address"
        },
        {
          "internalType": "uint256",
          "name": "balance",
          "type": "uint256"
        },
        {
          "internalType": "uint256",
          "name": "needed",
          "type": "uint256"
        }
      ],
      "name": "ERC20InsufficientBalance",
      "type": "error"
    },
    {
      "inputs": [
        {
          "internalType": "address",
          "name": "approver",
          "type": "address"
        }
      ],
      "name": "ERC20InvalidApprover",
      "type": "error"
    },
    {
      "inputs": [
        {
          "internalType": "address",
          "name": "receiver",
          "type": "address"
        }
      ],
      "name": "ERC20InvalidReceiver",
      "type": "error"
    },
    {
      "inputs": [
        {
          "internalType": "address",
          "name": "sender",
          "type": "address"
        }
      ],
      "name": "ERC20InvalidSender",
      "type": "error"
    },
    {
      "inputs": [
        {
          "internalType": "address",
          "name": "spender",
          "type": "address"
        }
      ],
      "name": "ERC20InvalidSpender",
      "type": "error"
    },
    {
      "anonymous": false,
      "inputs": [
        {
          "indexed": true,
          "internalType": "address",
          "name": "owner",
          "type": "address"
        },
        {
          "indexed": true,
          "internalType": "address",
          "name": "spender",
          "type": "address"
        },
        {
          "indexed": false,
          "internalType": "uint256",
          "name": "value",
          "type": "uint256"
        }
      ],
      "name": "Approval",
      "type": "event"
    },
    {
      "anonymous": false,
      "inputs": [
        {
          "indexed": true,
          "internalType": "address",
          "name": "from",
          "type": "address"
        },
        {
          "indexed": true,
          "internalType": "address",
          "name": "to",
          "type": "address"
        },
        {
          "indexed": false,
          "internalType": "uint256",
          "name": "value",
          "type": "uint256"
        }
      ],
      "name": "Transfer",
      "type": "event"
    },
    {
      "inputs": [
        {
          "internalType": "address",
          "name": "owner",
          "type": "address"
        },
        {
          "internalType": "address",
          "name": "spender",
          "type": "address"
        }
      ],
      "name": "allowance",
      "outputs": [
        {
          "internalType": "uint256",
          "name": "",
          "type": "uint256"
        }
      ],
      "stateMutability": "view",
      "type": "function"
    },
    {
      "inputs": [
        {
          "internalType": "address",
          "name": "spender",
          "type": "address"
        },
        {
          "internalType": "uint256",
          "name": "value",
          "type": "uint256"
        }
      ],
      "name": "approve",
      "outputs": [
        {
          "internalType": "bool",
          "name": "",
          "type": "bool"
        }
      ],
      "stateMutability": "nonpayable",
      "type": "function"
    },
    {
      "inputs": [
        {
          "internalType": "address",
          "name": "account",
          "type": "address"
        }
      ],
      "name": "balanceOf",
      "outputs": [
        {
          "internalType": "uint256",
          "name": "",
          "type": "uint256"
        }
      ],
      "stateMutability": "view",
      "type": "function"
    },
    {
      "inputs": [],
      "name": "decimals",
      "outputs": [
        {
          "internalType": "uint8",
          "name": "",
          "type": "uint8"
        }
      ],
      "stateMutability": "view",
      "type": "function"
    },
    {
      "inputs": [],
      "name": "name",
      "outputs": [
        {
          "internalType": "string",
          "name": "",
          "type": "string"
        }
      ],
      "stateMutability": "view",
      "type": "function"
    },
    {
      "inputs": [],
      "name": "owner",
      "outputs": [
        {
          "internalType": "address",
          "name": "",
          "type": "address"
        }
      ],
      "stateMutability": "view",
      "type": "function"
    },
    {
      "inputs": [],
      "name": "symbol",
      "outputs": [
        {
          "internalType": "string",
          "name": "",
          "type": "string"
        }
      ],
      "stateMutability": "view",
      "type": "function"
    },
    {
      "inputs": [],
      "name": "totalSupply",
      "outputs": [
        {
          "internalType": "uint256",
          "name": "",
          "type": "uint256"
        }
      ],
      "stateMutability": "view",
      "type": "function"
    },
    {
      "inputs": [
        {
          "internalType": "address",
          "name": "to",
          "type": "address"
        },
        {
          "internalType": "uint256",
          "name": "value",
          "type": "uint256"
        }
      ],
      "name": "transfer",
      "outputs": [
        {
          "internalType": "bool",
          "name": "",
          "type": "bool"
        }
      ],
      "stateMutability": "nonpayable",
      "type": "function"
    },
    {
      "inputs": [
        {
          "internalType": "address",
          "name": "from",
          "type": "address"
        },
        {
          "internalType": "address",
          "name": "to",
          "type": "address"
        },
        {
          "internalType": "uint256",
          "name": "value",
          "type": "uint256"
        }
      ],
      "name": "transferFrom",
      "outputs": [
        {
          "internalType": "bool",
          "name": "",
          "type": "bool"
        }
      ],
      "stateMutability": "nonpayable",
      "type": "function"
    },
    {
      "inputs": [
        {
          "internalType": "address",
          "name": "account",
          "type": "address"
        },
        {
          "internalType": "uint256",
          "name": "amount",
          "type": "uint256"
        }
      ],
      "name": "mintToken",
      "outputs": [],
      "stateMutability": "nonpayable",
      "type": "function"
    }
  ],
  "bytecode": "0x608060405234801562000010575f80fd5b5060405162000d3b38038062000d3b83398101604081905262000033916200026e565b6040518060400160405280600d81526020016c2a393ab3333632aa37b5b2b72160991b815250604051806040016040528060088152602001672a292aa3232622a160c11b81525081600390816200008b91906200033b565b5060046200009a82826200033b565b505050620000d481620000b2620000fa60201b60201c565b620000bf90600a62000516565b620000ce90620f424062000526565b620000ff565b600580546001600160a01b0319166001600160a01b039290921691909117905562000556565b601290565b6001600160a01b0382166200012e5760405163ec442f0560e01b81525f60048201526024015b60405180910390fd5b6200013b5f83836200013f565b5050565b6001600160a01b0383166200016d578060025f82825462000161919062000540565b90915550620001df9050565b6001600160a01b0383165f9081526020819052604090205481811015620001c15760405163391434e360e21b81526001600160a01b0385166004820152602481018290526044810183905260640162000125565b6001600160a01b0384165f9081526020819052604090209082900390555b6001600160a01b038216620001fd576002805482900390556200021b565b6001600160a01b0382165f9081526020819052604090208054820190555b816001600160a01b0316836001600160a01b03167fddf252ad1be2c89b69c2b068fc378daa952ba7f163c4a11628f55a4df523b3ef836040516200026191815260200190565b60405180910390a3505050565b5f602082840312156200027f575f80fd5b81516001600160a01b038116811462000296575f80fd5b9392505050565b634e487b7160e01b5f52604160045260245ffd5b600181811c90821680620002c657607f821691505b602082108103620002e557634e487b7160e01b5f52602260045260245ffd5b50919050565b601f8211156200033657805f5260205f20601f840160051c81016020851015620003125750805b601f840160051c820191505b8181101562000333575f81556001016200031e565b50505b505050565b81516001600160401b038111156200035757620003576200029d565b6200036f81620003688454620002b1565b84620002eb565b602080601f831160018114620003a5575f84156200038d5750858301515b5f19600386901b1c1916600185901b178555620003ff565b5f85815260208120601f198616915b82811015620003d557888601518255948401946001909101908401620003b4565b5085821015620003f357878501515f19600388901b60f8161c191681555b505060018460011b0185555b505050505050565b634e487b7160e01b5f52601160045260245ffd5b600181815b808511156200045b57815f19048211156200043f576200043f62000407565b808516156200044d57918102915b93841c939080029062000420565b509250929050565b5f82620004735750600162000510565b816200048157505f62000510565b81600181146200049a5760028114620004a557620004c5565b600191505062000510565b60ff841115620004b957620004b962000407565b50506001821b62000510565b5060208310610133831016604e8410600b8410161715620004ea575081810a62000510565b620004f683836200041b565b805f19048211156200050c576200050c62000407565b0290505b92915050565b5f6200029660ff84168362000463565b808202811582820484141762000510576200051062000407565b8082018082111562000510576200051062000407565b6107d780620005645f395ff3fe608060405234801561000f575f80fd5b50600436106100a6575f3560e01c806370a082311161006e57806370a082311461011f57806379c65068146101475780638da5cb5b1461015c57806395d89b4114610187578063a9059cbb1461018f578063dd62ed3e146101a2575f80fd5b806306fdde03146100aa578063095ea7b3146100c857806318160ddd146100eb57806323b872dd146100fd578063313ce56714610110575b5f80fd5b6100b26101da565b6040516100bf9190610631565b60405180910390f35b6100db6100d6366004610698565b61026a565b60405190151581526020016100bf565b6002545b6040519081526020016100bf565b6100db61010b3660046106c0565b610283565b604051601281526020016100bf565b6100ef61012d3660046106f9565b6001600160a01b03165f9081526020819052604090205490565b61015a610155366004610698565b6102a6565b005b60055461016f906001600160a01b031681565b6040516001600160a01b0390911681526020016100bf565b6100b26102ff565b6100db61019d366004610698565b61030e565b6100ef6101b0366004610719565b6001600160a01b039182165f90815260016020908152604080832093909416825291909152205490565b6060600380546101e99061074a565b80601f01602080910402602001604051908101604052809291908181526020018280546102159061074a565b80156102605780601f1061023757610100808354040283529160200191610260565b820191905f5260205f20905b81548152906001019060200180831161024357829003601f168201915b5050505050905090565b5f3361027781858561031b565b60019150505b92915050565b5f3361029085828561032d565b61029b8585856103a8565b506001949350505050565b6005546001600160a01b031633146102f15760405162461bcd60e51b81526020600482015260096024820152682737ba1027bbb732b960b91b60448201526064015b60405180910390fd5b6102fb8282610405565b5050565b6060600480546101e99061074a565b5f336102778185856103a8565b6103288383836001610439565b505050565b6001600160a01b038381165f908152600160209081526040808320938616835292905220545f1981146103a2578181101561039457604051637dc7a0d960e11b81526001600160a01b038416600482015260248101829052604481018390526064016102e8565b6103a284848484035f610439565b50505050565b6001600160a01b0383166103d157604051634b637e8f60e11b81525f60048201526024016102e8565b6001600160a01b0382166103fa5760405163ec442f0560e01b81525f60048201526024016102e8565b61032883838361050b565b6001600160a01b03821661042e5760405163ec442f0560e01b81525f60048201526024016102e8565b6102fb5f838361050b565b6001600160a01b0384166104625760405163e602df0560e01b81525f60048201526024016102e8565b6001600160a01b03831661048b57604051634a1406b160e11b81525f60048201526024016102e8565b6001600160a01b038085165f90815260016020908152604080832093871683529290522082905580156103a257826001600160a01b0316846001600160a01b03167f8c5be1e5ebec7d5bd14f71427d1e84f3dd0314c0f7b2291e5b200ac8c7c3b925846040516104fd91815260200190565b60405180910390a350505050565b6001600160a01b038316610535578060025f82825461052a9190610782565b909155506105a59050565b6001600160a01b0383165f90815260208190526040902054818110156105875760405163391434e360e21b81526001600160a01b038516600482015260248101829052604481018390526064016102e8565b6001600160a01b0384165f9081526020819052604090209082900390555b6001600160a01b0382166105c1576002805482900390556105df565b6001600160a01b0382165f9081526020819052604090208054820190555b816001600160a01b0316836001600160a01b03167fddf252ad1be2c89b69c2b068fc378daa952ba7f163c4a11628f55a4df523b3ef8360405161062491815260200190565b60405180910390a3505050565b5f602080835283518060208501525f5b8181101561065d57858101830151858201604001528201610641565b505f604082860101526040601f19601f8301168501019250505092915050565b80356001600160a01b0381168114610693575f80fd5b919050565b5f80604083850312156106a9575f80fd5b6106b28361067d565b946020939093013593505050565b5f805f606084860312156106d2575f80fd5b6106db8461067d565b92506106e96020850161067d565b9150604084013590509250925092565b5f60208284031215610709575f80fd5b6107128261067d565b9392505050565b5f806040838503121561072a575f80fd5b6107338361067d565b91506107416020840161067d565b90509250929050565b600181811c9082168061075e57607f821691505b60208210810361077c57634e487b7160e01b5f52602260045260245ffd5b50919050565b8082018082111561027d57634e487b7160e01b5f52601160045260245ffdfea264697066735822122013a9bf13310910faca8ed3f6bb8f023798c068aaabd73d9f9785d735773f4bb764736f6c63430008180033",
  "immutableReferences": {},
  "source": "// SPDX-License-Identifier: MIT\r\n\r\npragma solidity ^0.8.24;\r\n\r\nimport \"@openzeppelin/contracts/token/ERC20/ERC20.sol\";\r\n\r\ncontract Token is ERC20 {\r\n    address public owner;\r\n\r\n    constructor(address initialOwner) ERC20(\"TruffleTokenB\", \"TRUFFLEB\") {\r\n        _mint(initialOwner, 1000000 * 10 ** decimals());\r\n        owner = initialOwner;\r\n    }\r\n\r\n    function mintToken(address account, uint256 amount) public {\r\n        require(msg.sender == owner, \"Not Owner\");\r\n        _mint(account, amount);\r\n    }\r\n}\r\n",
  "sourcePath": "F:\\soldity\\709\\Token\\contracts\\MockToken.sol",
  "compiler": {
    "name": "solc",
    "version": "0.8.24+commit.e11b9ed9.Emscripten.clang"
  },
  "schemaVersion": "3.4.16",
  "updatedAt": "2024-07-10T02:45:55.924Z",
  "devdoc": {
    "errors": {
      "ERC20InsufficientAllowance(address,uint256,uint256)": [
        {
          "details": "Indicates a failure with the `spender`s `allowance`. Used in transfers.",
          "params": {
            "allowance": "Amount of tokens a `spender` is allowed to operate with.",
            "needed": "Minimum amount required to perform a transfer.",
            "spender": "Address that may be allowed to operate on tokens without being their owner."
          }
        }
      ],
      "ERC20InsufficientBalance(address,uint256,uint256)": [
        {
          "details": "Indicates an error related to the current `balance` of a `sender`. Used in transfers.",
          "params": {
            "balance": "Current balance for the interacting account.",
            "needed": "Minimum amount required to perform a transfer.",
            "sender": "Address whose tokens are being transferred."
          }
        }
      ],
      "ERC20InvalidApprover(address)": [
        {
          "details": "Indicates a failure with the `approver` of a token to be approved. Used in approvals.",
          "params": {
            "approver": "Address initiating an approval operation."
          }
        }
      ],
      "ERC20InvalidReceiver(address)": [
        {
          "details": "Indicates a failure with the token `receiver`. Used in transfers.",
          "params": {
            "receiver": "Address to which tokens are being transferred."
          }
        }
      ],
      "ERC20InvalidSender(address)": [
        {
          "details": "Indicates a failure with the token `sender`. Used in transfers.",
          "params": {
            "sender": "Address whose tokens are being transferred."
          }
        }
      ],
      "ERC20InvalidSpender(address)": [
        {
          "details": "Indicates a failure with the `spender` to be approved. Used in approvals.",
          "params": {
            "spender": "Address that may be allowed to operate on tokens without being their owner."
          }
        }
      ]
    },
    "events": {
      "Approval(address,address,uint256)": {
        "details": "Emitted when the allowance of a `spender` for an `owner` is set by a call to {approve}. `value` is the new allowance."
      },
      "Transfer(address,address,uint256)": {
        "details": "Emitted when `value` tokens are moved from one account (`from`) to another (`to`). Note that `value` may be zero."
      }
    },
    "kind": "dev",
    "methods": {
      "allowance(address,address)": {
        "details": "See {IERC20-allowance}."
      },
      "approve(address,uint256)": {
        "details": "See {IERC20-approve}. NOTE: If `value` is the maximum `uint256`, the allowance is not updated on `transferFrom`. This is semantically equivalent to an infinite approval. Requirements: - `spender` cannot be the zero address."
      },
      "balanceOf(address)": {
        "details": "See {IERC20-balanceOf}."
      },
      "decimals()": {
        "details": "Returns the number of decimals used to get its user representation. For example, if `decimals` equals `2`, a balance of `505` tokens should be displayed to a user as `5.05` (`505 / 10 ** 2`). Tokens usually opt for a value of 18, imitating the relationship between Ether and Wei. This is the default value returned by this function, unless it's overridden. NOTE: This information is only used for _display_ purposes: it in no way affects any of the arithmetic of the contract, including {IERC20-balanceOf} and {IERC20-transfer}."
      },
      "name()": {
        "details": "Returns the name of the token."
      },
      "symbol()": {
        "details": "Returns the symbol of the token, usually a shorter version of the name."
      },
      "totalSupply()": {
        "details": "See {IERC20-totalSupply}."
      },
      "transfer(address,uint256)": {
        "details": "See {IERC20-transfer}. Requirements: - `to` cannot be the zero address. - the caller must have a balance of at least `value`."
      },
      "transferFrom(address,address,uint256)": {
        "details": "See {IERC20-transferFrom}. Emits an {Approval} event indicating the updated allowance. This is not required by the EIP. See the note at the beginning of {ERC20}. NOTE: Does not update the allowance if the current allowance is the maximum `uint256`. Requirements: - `from` and `to` cannot be the zero address. - `from` must have a balance of at least `value`. - the caller must have allowance for ``from``'s tokens of at least `value`."
      }
    },
    "version": 1
  },
  "userdoc": {
    "kind": "user",
    "methods": {},
    "version": 1
  }
}